:100000000C9458000C9480000C9480000C94800098
:100010000C9480000C9480000C9480000C94800060
:100020000C9480000C9480000C9480000C94800050
:100030000C9480000C9480000C9480000C94800040
:100040000C94F2030C9480000C9480000C948000BB
:100050000C9480000C9480000C9480000C94800020
:100060000C943C040C948000000000002500280043
:100070002B00040404040404040402020202020229
:10008000030303030303010204081020408001025C
:1000900004081020010204081020000000080002DB
:1000A00001000003040700000000000000005B05E1
:1000B00011241FBECFEFD8E0DEBFCDBF11E0A0E01E
:1000C000B1E0E8E1FDE002C005900D92A633B10772
:1000D000D9F722E0A6E3B1E001C01D92AA31B20730
:1000E000E1F710E0C8E5D0E004C02197FE010E94CE
:1000F0008406C735D107C9F70E948C050C948A067F
:100100000C94000090E0FC01E656FF4F2491FC01A6
:10011000EA57FF4F3491FC01EE58FF4FE491EE2374
:10012000C9F0222339F0233001F1A8F4213019F16C
:10013000223029F1F0E0EE0FFF1FE859FF4FA591A3
:10014000B4918FB7F894EC91611126C030953E239D
:100150003C938FBF08952730A9F02830C9F0243090
:1001600049F7809180008F7D03C0809180008F7758
:1001700080938000DFCF84B58F7784BDDBCF84B5DB
:100180008F7DFBCF8091B0008F778093B000D2CF6E
:100190008091B0008F7DF9CF3E2BDACF3FB7F89436
:1001A0008091F5019091F601A091F701B091F801CD
:1001B00026B5A89B05C02F3F19F00196A11DB11DC2
:1001C0003FBFBA2FA92F982F8827BC01CD01620FFE
:1001D000711D811D911D42E0660F771F881F991FB9
:1001E0004A95D1F708958F929F92AF92BF92CF9286
:1001F000DF92EF92FF924B015C010E94CE006B01F7
:100200007C010E94CE006C197D098E099F09683E11
:10021000734081059105A8F321E0821A9108A10895
:10022000B10888EEC80E83E0D81EE11CF11C8114D1
:100230009104A104B10429F7FF90EF90DF90CF90D3
:10024000BF90AF909F908F90089508950895AF92BA
:10025000BF92CF92DF92EF92FF920F931F93CF93B3
:10026000DF936C017B018B01040F151FEB015E0115
:10027000AE18BF08C017D10759F06991D601ED91AA
:10028000FC910190F081E02DC6010995892B79F749
:10029000C501DF91CF911F910F91FF90EF90DF90FB
:1002A000CF90BF90AF90089520919E01260F3327E5
:1002B000331F21323105ECF42091C201FC0190E0A2
:1002C00080E0243069F082E00895A0919E012191A0
:1002D000AC0142585E4FA40FB52FB11D2C9301966F
:1002E000861798F380919E01680F60939E0180E0CD
:1002F000089581E008951092C20181E08093C401C5
:100300001092C30161E082E10E94820061E083E11A
:100310000E948200E9EBF0E080818E7F8083808103
:100320008D7F808388E48093B80085E48093BC004F
:100330000895CF93DF9391E090937D018823B9F0E6
:10034000C091B800D091BA008091BC008A7B8093A4
:10035000BC0060E082E10E94820060E083E10E94D4
:1003600082000E947B01D093BA00C093B800DF9155
:10037000CF9108950895E091EF018091EE01E81783
:1003800030F4F0E0E85AFE4F808190E008958FEF5E
:100390009FEF08959091EF018091EE012FEF3FEFD5
:1003A000981748F4E92FF0E0E85AFE4F208130E03A
:1003B0009F5F9093EF01C90108958091EE019091A4
:1003C000EF01891B990B0895CF92DF92EF92FF9274
:1003D0000F931F93CF93DF937C01CB018A01209170
:1003E0005701222389F0EB016B01C40ED51ECC15F9
:1003F000DD0569F06991D701ED91FC910190F081E3
:10040000E02DC7010995F3CF642F0E945401C80164
:10041000DF91CF911F910F91FF90EF90DF90CF90E0
:100420000895CF93DF931F92CDB7DEB769832091F4
:1004300057012223F9F02091EC01203258F021E0FD
:1004400030E0FC013383228390E080E00F90DF9165
:10045000CF9108958091ED01E82FF0E0E95CFE4F27
:10046000998190838F5F8093ED018093EC0181E00F
:1004700090E0ECCF61E0CE0101960E945401F7CFED
:10048000CF92DF92EF92FF920F931F93CF93DF9360
:10049000FC01C48121E020935701C09336011092E2
:1004A000ED011092EC018485682B89EF91E00E94A8
:1004B0001102D091EC01D13208F092C00E94CE001E
:1004C0006B017C018091C201811165C082E0809343
:1004D000C20181E08093C4018FEF8093C10110922B
:1004E000E601D093E501A7E3B1E0E5ECF1E080E0BF
:1004F000D81385C01092E7018091E701CC0FC82B7B
:10050000C093E7018091C301813009F07CC0109253
:10051000C3010E94CE006B017C018091E7018093B2
:10052000BB008091790190917A01A0917B01B091FB
:100530007C01892B8A2B8B2B99F00E94CE00009195
:10054000790110917A0120917B0130917C016C1925
:100550007D098E099F090617170728073907E0F15B
:100560008091BC0083FDD9CF85EC8093BC000E94B4
:10057000CE006B017C018091C201823009F445C03C
:100580008091C1018F3F61F18091C101803241F1C1
:100590008091C10125C08091790190917A01A0914B
:1005A0007B01B0917C01892B8A2B8B2B09F48ACF9C
:1005B0000E94CE000091790110917A0120917B0177
:1005C00030917C016C197D098E099F090617170768
:1005D0002807390708F076CF809178010E949901A9
:1005E0001092ED011092EC0110925701DF91CF9122
:1005F0001F910F91FF90EF90DF90CF9008959D9104
:1006000091938F5F75CF85EEB0CF809179019091F6
:100610007A01A0917B01B0917C01892B8A2B8B2BD5
:1006200009F4A9CF0E94CE000091790110917A01BE
:1006300020917B0130917C016C197D098E099F0905
:10064000061717072807390708F095CFC5CF089573
:1006500090E080E0089585ED8093BC008091790161
:1006600090917A01A0917B01B0917C010796A11D28
:10067000B11D23E0B695A795979587952A95D1F753
:100680002091BC0024FD03C01092C2010895409146
:10069000790150917A0160917B0170917C01452B29
:1006A000462B472B69F30097A105B10541F02AE2DB
:1006B0002A95F1F700C00197A109B109E1CF809116
:1006C00078010C9499010F931F93CF938C01C62F3F
:1006D0000E9440026C2F6460C8010E9440026C2F8F
:1006E0006B7FC8010E94400283EC90E00197F1F714
:1006F000CF911F910F9108950F931F93CF93DF9385
:100700008C01D62FC42F607F642B0E94630380E18D
:10071000D89FB00111246C2BC801DF91CF911F919C
:100720000F910C946303EF92FF920F931F93CF935B
:10073000DF938C017A0188E0689FB0011124606426
:1007400040E0C8010E947C03E701A8E0EA0EF11C2A
:100750006991D801ED91FC910190F081E02DC801E3
:100760000995CE15DF05A1F7DF91CF911F910F916C
:10077000FF90EF900895CF93DF93CDB7DEB7289722
:100780000FB6F894DEBF0FBECDBF28E0E0E1F1E088
:10079000DE01119601900D922A95E1F7FC0120856A
:1007A000241710F44FEF420F50E0440F551F21E083
:1007B00030E02C0F3D1F420F531FFA012081620FC2
:1007C000606840E028960FB6F894DEBF0FBECDBF3C
:1007D000DF91CF910C947C0341E00E947C0381E087
:1007E00090E008951F920F920FB60F9211242F934D
:1007F0003F938F939F93AF93BF938091F10190911B
:10080000F201A091F301B091F4013091F00123E0E5
:10081000230F2D3758F50196A11DB11D2093F0012E
:100820008093F1019093F201A093F301B093F4014E
:100830008091F5019091F601A091F701B091F80136
:100840000196A11DB11D8093F5019093F601A0932F
:10085000F701B093F801BF91AF919F918F913F91B4
:100860002F910F900FBE0F901F90189526E8230F21
:100870000296A11DB11DD2CF1F920F920FB60F92FB
:1008800011242F933F934F935F936F937F938F9395
:100890009F93AF93BF93EF93FF938091B900887FAD
:1008A000803609F44AC0F0F5883209F4A7C018F57B
:1008B000803109F49BC0B8F4882309F4F9C088306A
:1008C00009F494C0FF91EF91BF91AF919F918F91E7
:1008D0007F916F915F914F913F912F910F900FBE3C
:1008E0000F901F901895883109F488C0803251F715
:1008F0008093C10114C0803409F49DC040F480335A
:10090000B9F38833F9F68093C10185ECB0C0803526
:1009100009F485C0883509F496C0883499F60E9498
:100920002B03D0CF883909F48CC038F5883729F0EB
:1009300050F4883611F0803729F683E08093C201A5
:100940001092C00157C0883809F47BC0803919F073
:10095000803809F0B7CF8091C001803208F071C0B3
:10096000E091C00181E08E0F8093C0018091BB00B7
:10097000F0E0E056FE4F80833DC0803B39F0E0F46C
:10098000803A09F479C0883A09F09CCF84E08093DA
:10099000C20110929F0110929E01E091EA01F09134
:1009A000EB01099580919E0181110FC081E0809338
:1009B0009E0110927E0109C0803C09F4A6CF883CBC
:1009C00009F4A3CF883B09F07DCFE0919F0181E03E
:1009D0008E0F80939F01F0E0E258FE4F808180935C
:1009E000BB0090919F0180919E0129C08091E701F9
:1009F0008093BB0085EC8093BC0064CF9091E601AE
:100A00008091E501981758F5E091E60181E08E0F9D
:100A10008093E601F0E0EB53FE4F8081E9CFE09157
:100A2000E60181E08E0F8093E6018091BB00F0E04B
:100A3000EB53FE4F80839091E6018091E50198177A
:100A4000C8F285E8D8CFE091E60181E08E0F80936F
:100A5000E6018091BB00F0E0EB53FE4F8083809174
:100A6000C40181115CCF81E08093C30184EA80934B
:100A7000BC001092C20126CF85EC8093BC0010927E
:100A8000C2018091C001803230F4E091C001F0E0F9
:100A9000E056FE4F10826091C00170E0E091E801E5
:100AA000F091E90180EA91E009951092C0010ACF26
:100AB0001092C10134CFE9EFF1E01382128288EE87
:100AC00093E0A0E0B0E084839583A683B7838CE1B4
:100AD00091E091838083EDE0F2E0138212828EE256
:100AE00091E091838083118687E2848384E1828709
:100AF00084E083871486F0930C02E0930B02A5E058
:100B0000B2E013961C921E92129715961C921E929A
:100B10001497ED93FC930895789484B5826084BD16
:100B200084B5816084BD85B5826085BD85B58160F1
:100B300085BD80916E00816080936E00109281006F
:100B4000809181008260809381008091810081602A
:100B500080938100809180008160809380008091EB
:100B6000B10084608093B1008091B0008160809377
:100B7000B00080917A00846080937A0080917A003E
:100B8000826080937A0080917A00816080937A00FD
:100B900080917A00806880937A001092C100C091A1
:100BA0000B02D0910C021092EF011092EE01109204
:100BB000ED011092EC010E947B0185E291E090939F
:100BC000EB018093EA0186E291E09093E901809342
:100BD000E8011D828B85823010F098E09D83888724
:100BE00062E370E080E090E00E94F3006C85CE014B
:100BF0000E94400268EE73E080E090E00E94F30003
:100C000060E3CE010E9463030BE416E4C801019780
:100C1000F1F760E3CE010E946303C8010197F1F789
:100C200060E3CE010E94630383E592E00197F1F750
:100C300060E2CE010E9463036D81606240E0CE01FC
:100C40000E947C0384E08E8340E06CE0CE010E9431
:100C50007C0340E061E0CE010E947C038BE39FE1D6
:100C60000197F1F78985882329F040E060E0CE0103
:100C70000E94BB0382E08F8340E066E0CE010E94C9
:100C80007C0340E062E0CE010E947C038BE39FE1A5
:100C90000197F1F780910B0290910C0228E0DC01A2
:100CA0001C962C9360E00E94400248E051E060E016
:100CB00080910B0290910C020E94930340E051E05E
:100CC00061E080910B0290910C020E949303C0E0BE
:100CD000D0E0409109026091070280910502909155
:100CE00006020E94BB038091050290910602DC017E
:100CF000ED91FC910190F081E02D60E00995209745
:100D000041F30E940000E5CFEE0FFF1F0590F49124
:080D1000E02D0994F894FFCFD7
:100D1800000E1F1D1F1F0E00060D1F1C1E0F0600B4
:100D28000000400014005400000000001102E4011B
:100D38002803BA01DD01CA01BB0100000000EC0371
:060D480027012803270328
:00000001FF
