:020000040000FA
:100000000C9458000C9480000C9480000C94800098
:100010000C9480000C9480000C9480000C94800060
:100020000C9480000C9480000C9480000C94800050
:100030000C9480000C9480000C9480000C94800040
:100040000C94CD030C9480000C9480000C948000E0
:100050000C9480000C9480000C9480000C94800020
:100060000C9417040C948000000000002500280068
:100070002B00040404040404040402020202020229
:10008000030303030303010204081020408001025C
:1000900004081020010204081020000000080002DB
:1000A0000100000304070000000000000000360506
:1000B00011241FBECFEFD8E0DEBFCDBF11E0A0E01E
:1000C000B1E0E2E0FDE002C005900D92AC33B10773
:1000D000D9F722E0ACE3B1E001C01D92A831B2072C
:1000E000E1F710E0C8E5D0E004C02197FE010E94CE
:1000F0007906C735D107C9F70E9457050C947F06CA
:100100000C94000090E0FC01E656FF4F2491FC01A6
:10011000EA57FF4F3491FC01EE58FF4FE491EE2374
:10012000C9F0222339F0233001F1A8F4213019F16C
:10013000223029F1F0E0EE0FFF1FE859FF4FA591A3
:10014000B4918FB7F894EC91611126C030953E239D
:100150003C938FBF08952730A9F02830C9F0243090
:1001600049F7809180008F7D03C0809180008F7758
:1001700080938000DFCF84B58F7784BDDBCF84B5DB
:100180008F7DFBCF8091B0008F778093B000D2CF6E
:100190008091B0008F7DF9CF3E2BDACF3FB7F89436
:1001A0008091FB019091FC01A091FD01B091FE01B5
:1001B00026B5A89B05C02F3F19F00196A11DB11DC2
:1001C0003FBFBA2FA92F982F8827BC01CD01620FFE
:1001D000711D811D911D42E0660F771F881F991FB9
:1001E0004A95D1F708958F929F92AF92BF92CF9286
:1001F000DF92EF92FF924B015C010E94CE006B01F7
:100200007C010E94CE006C197D098E099F09683E11
:10021000734081059105A8F321E0821A9108A10895
:10022000B10888EEC80E83E0D81EE11CF11C8114D1
:100230009104A104B10429F7FF90EF90DF90CF90D3
:10024000BF90AF909F908F90089508950895AF92BA
:10025000BF92CF92DF92EF92FF920F931F93CF93B3
:10026000DF936C017B018B01040F151FEB015E0115
:10027000AE18BF08C017D10759F06991D601ED91AA
:10028000FC910190F081E02DC6010995892B79F749
:10029000C501DF91CF911F910F91FF90EF90DF90FB
:1002A000CF90BF90AF9008952091A401260F3327DF
:1002B000331F21323105ECF42091C801FC0190E09C
:1002C00080E0243069F082E00895A091A40121919A
:1002D000AC014C575E4FA40FB52FB11D2C93019666
:1002E000861798F38091A401680F6093A40180E0C1
:1002F000089581E008951092C80181E08093CA01B9
:100300001092C90161E082E10E94820061E083E114
:100310000E948200E9EBF0E080818E7F8083808103
:100320008D7F808388E48093B80085E48093BC004F
:100330000895CF93DF9391E0909383018823B9F0E0
:10034000C091B800D091BA008091BC008A7B8093A4
:10035000BC0060E082E10E94820060E083E10E94D4
:1003600082000E947B01D093BA00C093B800DF9155
:10037000CF9108950895E091F5018091F401E81777
:1003800030F4F0E0E25AFE4F808190E008958FEF64
:100390009FEF08959091F5018091F4012FEF3FEFC9
:1003A000981748F4E92FF0E0E25AFE4F208130E040
:1003B0009F5F9093F501C90108958091F401909198
:1003C000F501891B990B0895CF92DF92EF92FF926E
:1003D0000F931F93CF93DF937C01CB018A01209170
:1003E0005D01222389F0EB016B01C40ED51ECC15F3
:1003F000DD0569F06991D701ED91FC910190F081E3
:10040000E02DC7010995F3CF642F0E945401C80164
:10041000DF91CF911F910F91FF90EF90DF90CF90E0
:100420000895CF93DF931F92CDB7DEB769832091F4
:100430005D012223F9F02091F201203258F021E0F1
:1004400030E0FC013383228390E080E00F90DF9165
:10045000CF9108958091F301E82FF0E0E35CFE4F27
:10046000998190838F5F8093F3018093F20181E003
:1004700090E0ECCF61E0CE0101960E945401F7CFED
:10048000CF92DF92EF92FF920F931F93CF93DF9360
:10049000FC01C48121E020935D01C0933C011092D6
:1004A000F3011092F2018485682B8FEF91E00E9496
:1004B0001102D091F201D13208F092C00E94CE0018
:1004C0006B017C018091C801811165C082E080933D
:1004D000C80181E08093CA018FEF8093C701109219
:1004E000EC01D093EB01ADE3B1E0EBECF1E080E0A7
:1004F000D81385C01092ED018091ED01CC0FC82B6F
:10050000C093ED018091C901813009F07CC0109247
:10051000C9010E94CE006B017C018091ED018093A6
:10052000BB0080917F0190918001A0918101B091E9
:100530008201892B8A2B8B2B99F00E94CE0000918F
:100540007F011091800120918101309182016C190D
:100550007D098E099F090617170728073907E0F15B
:100560008091BC0083FDD9CF85EC8093BC000E94B4
:10057000CE006B017C018091C801823009F445C036
:100580008091C7018F3F61F18091C701803241F1B5
:100590008091C70125C080917F0190918001A09139
:1005A0008101B0918201892B8A2B8B2B09F48ACF90
:1005B0000E94CE0000917F01109180012091810165
:1005C000309182016C197D098E099F090617170762
:1005D0002807390708F076CF80917E010E949901A3
:1005E0001092F3011092F20110925D01DF91CF9110
:1005F0001F910F91FF90EF90DF90CF9008959D9104
:1006000091938F5F75CF85EEB0CF80917F019091F0
:100610008001A0918101B0918201892B8A2B8B2BC3
:1006200009F4A9CF0E94CE0000917F0110918001B2
:1006300020918101309182016C197D098E099F09F9
:10064000061717072807390708F095CFC5CF089573
:1006500090E080E0089585ED8093BC0080917F015B
:1006600090918001A0918101B09182010796A11D16
:10067000B11D23E0B695A795979587952A95D1F753
:100680002091BC0024FD03C01092C8010895409140
:100690007F01509180016091810170918201452B11
:1006A000462B472B69F30097A105B10541F02AE2DB
:1006B0002A95F1F700C00197A109B109E1CF809116
:1006C0007E010C9499010F931F93CF938C01C62F39
:1006D0000E9440026C2F6460C8010E9440026C2F8F
:1006E0006B7FC8010E94400283EC90E00197F1F714
:1006F000CF911F910F9108950F931F93CF93DF9385
:100700008C01D62FC42F607F642B0E94630380E18D
:10071000D89FB00111246C2BC801DF91CF911F919C
:100720000F910C946303CF93DF93CDB7DEB7289777
:100730000FB6F894DEBF0FBECDBF98E0E1E1F1E067
:10074000DE01119601900D929A95E1F790911302B6
:10075000961710F46FEF690F262F30E0220F331F2A
:1007600041E050E04C0F5D1F240F351FF9016081FF
:10077000680F606840E08BE092E028960FB6F8942E
:10078000DEBF0FBECDBFDF91CF910C947C0341E063
:100790000E947C0381E090E008951F920F920FB6B3
:1007A0000F9211242F933F938F939F93AF93BF93F7
:1007B0008091F7019091F801A091F901B091FA01AF
:1007C0003091F60123E0230F2D3758F50196A11D36
:1007D000B11D2093F6018093F7019093F801A09347
:1007E000F901B093FA018091FB019091FC01A09175
:1007F000FD01B091FE010196A11DB11D8093FB0189
:100800009093FC01A093FD01B093FE01BF91AF91C5
:100810009F918F913F912F910F900FBE0F901F903E
:10082000189526E8230F0296A11DB11DD2CF1F9265
:100830000F920FB60F9211242F933F934F935F9314
:100840006F937F938F939F93AF93BF93EF93FF9398
:100850008091B900887F803609F44AC0F0F588326B
:1008600009F4A7C018F5803109F49BC0B8F48823B7
:1008700009F4F9C0883009F494C0FF91EF91BF9159
:10088000AF919F918F917F916F915F914F913F9128
:100890002F910F900FBE0F901F901895883109F47B
:1008A00088C0803251F78093C70114C0803409F4A6
:1008B0009DC040F48033B9F38833F9F68093C701C3
:1008C00085ECB0C0803509F485C0883509F496C040
:1008D000883499F60E942B03D0CF883909F48CC054
:1008E00038F5883729F050F4883611F0803729F62A
:1008F00083E08093C8011092C60157C0883809F47C
:100900007BC0803919F0803809F0B7CF8091C601DB
:10091000803208F071C0E091C60181E08E0F8093B3
:10092000C6018091BB00F0E0EA55FE4F80833DC0D8
:10093000803B39F0E0F4803A09F479C0883A09F054
:100940009CCF84E08093C8011092A5011092A4016D
:10095000E091F001F091F10109958091A4018111DC
:100960000FC081E08093A4011092840109C0803CF3
:1009700009F4A6CF883C09F4A3CF883B09F07DCFCA
:10098000E091A50181E08E0F8093A501F0E0EC5786
:10099000FE4F80818093BB009091A5018091A401BE
:1009A00029C08091ED018093BB0085EC8093BC0051
:1009B00064CF9091EC018091EB01981758F5E0918C
:1009C000EC0181E08E0F8093EC01F0E0E553FE4FE7
:1009D0008081E9CFE091EC0181E08E0F8093EC0102
:1009E0008091BB00F0E0E553FE4F80839091EC01D5
:1009F0008091EB019817C8F285E8D8CFE091EC011F
:100A000081E08E0F8093EC018091BB00F0E0E55314
:100A1000FE4F80838091CA0181115CCF81E0809379
:100A2000C90184EA8093BC001092C80126CF85ECEE
:100A30008093BC001092C8018091C601803230F4CE
:100A4000E091C601F0E0EA55FE4F10826091C601C8
:100A500070E0E091EE01F091EF0186EA91E00995F6
:100A60001092C6010ACF1092C70134CFEFEFF1E028
:100A70001382128288EE93E0A0E0B0E08483958335
:100A8000A683B7838DE191E091838083EBE0F2E070
:100A9000138212828FE291E091838083118687E234
:100AA000848384E1828784E0838714860895789420
:100AB00084B5826084BD84B5816084BD85B5826063
:100AC00085BD85B5816085BD80916E008160809314
:100AD0006E0010928100809181008260809381007D
:100AE000809181008160809381008091800081608D
:100AF000809380008091B10084608093B1008091E8
:100B0000B00081608093B00080917A00846080930F
:100B10007A0080917A00826080937A0080917A00D6
:100B2000816080937A0080917A00806880937A0057
:100B30001092C1001092F5011092F4011092F3018D
:100B40001092F2010E947B0185E291E09093F10105
:100B50008093F00186E291E09093EF018093EE01A3
:100B60001092100280911602823018F098E0909353
:100B700010028093130262E370E080E090E00E9434
:100B8000F300609117028BE092E00E94400268EE51
:100B900073E080E090E00E94F30060E38BE092E07D
:100BA0000E946303CBE4D6E4CE010197F1F760E342
:100BB0008BE092E00E9463032197F1F760E38BE002
:100BC00092E00E94630383E592E00197F1F760E20F
:100BD0008BE092E00E94630360911002606240E04B
:100BE0008BE092E00E947C0384E08093110240E05D
:100BF0006CE08BE092E00E947C0340E061E08BE0DF
:100C000092E00E947C038BE39FE10197F1F78091D2
:100C10001402882321F060E080E00E94930382E0C8
:100C20008093120240E066E08BE092E00E947C0339
:100C300040E062E08BE092E00E947C038BE39FE166
:100C40000197F1F788E08093170260E08BE092E073
:100C50000E94400240E060E48BE092E00E947C034E
:100C6000C8E0D1E069918BE092E00E94C70381E087
:100C7000C031D807B9F740E068E48BE092E00E9409
:100C80007C03C0E0D1E008E011E069918BE092E0E4
:100C90000E94C7030C171D07C1F700E010E0C0E079
:100CA00063E08C2F0E94930343E050E067E371E020
:100CB0008BE092E00E942701D091100160E0D111F9
:100CC00001C061E08BE092E00E94C70381E0D82779
:100CD000D093100164EF71E080E090E00E94F30097
:100CE000CF5FC431E9F601151105C9F20E94000079
:100CF000D6CFEE0FFF1F0590F491E02D0994F894E4
:100D0000FFCF00070D1F1E0F0700070D1F18181E2D
:100D10000F07010000400014005400000000001103
:100D200002E4012803BA01DD01CA01BB0100000091
:0E0D300000C7032701280327032E2E2E0000E4
:107E0000112484B714BE81FFF0D085E080938100F7
:107E100082E08093C00088E18093C10086E0809377
:107E2000C20080E18093C4008EE0C9D0259A86E02C
:107E300020E33CEF91E0309385002093840096BBD3
:107E4000B09BFECF1D9AA8958150A9F7CC24DD24C4
:107E500088248394B5E0AB2EA1E19A2EF3E0BF2EE7
:107E6000A2D0813461F49FD0082FAFD0023811F036
:107E7000013811F484E001C083E08DD089C08234E0
:107E800011F484E103C0853419F485E0A6D080C0E4
:107E9000853579F488D0E82EFF2485D0082F10E0AE
:107EA000102F00270E291F29000F111F8ED06801E7
:107EB0006FC0863521F484E090D080E0DECF843638
:107EC00009F040C070D06FD0082F6DD080E0C81688
:107ED00080E7D80618F4F601B7BEE895C0E0D1E017
:107EE00062D089930C17E1F7F0E0CF16F0E7DF06D8
:107EF00018F0F601B7BEE89568D007B600FCFDCFD4
:107F0000A601A0E0B1E02C9130E011968C91119780
:107F100090E0982F8827822B932B1296FA010C0160
:107F200087BEE89511244E5F5F4FF1E0A038BF0790
:107F300051F7F601A7BEE89507B600FCFDCF97BE46
:107F4000E89526C08437B1F42ED02DD0F82E2BD052
:107F50003CD0F601EF2C8F010F5F1F4F84911BD097
:107F6000EA94F801C1F70894C11CD11CFA94CF0C13
:107F7000D11C0EC0853739F428D08EE10CD085E9AC
:107F80000AD08FE07ACF813511F488E018D01DD067
:107F900080E101D065CF982F8091C00085FFFCCF94
:107FA0009093C60008958091C00087FFFCCF809118
:107FB000C00084FD01C0A8958091C6000895E0E648
:107FC000F0E098E1908380830895EDDF803219F02E
:107FD00088E0F5DFFFCF84E1DECF1F93182FE3DFCA
:107FE0001150E9F7F2DF1F91089580E0E8DFEE27F6
:047FF000FF270994CA
:027FFE00040479
:00000001FF
